:020000040800F2
:1000000000500020DD1000089D0D0008D1100008F0
:100010001D1100081D1100081D110008000000003E
:100020000000000000000000000000001D1100089A
:100030001D110008000000001D1100081D1100081E
:100040001D1100081D1100081D1100081D110008D8
:100050001D1100081D1100081D1100081D110008C8
:100060001D1100081D1100081D1100081D110008B8
:100070001D1100081D1100081D1100081D110008A8
:100080001D1100081D1100081D1100081D11000898
:100090001D1100081D1100081D1100081D11000888
:1000A0001D1100081D1100081D1100081D11000878
:1000B000B50F00081D1100081D1100081D110008D2
:1000C0001D1100081D1100081D1100081D11000858
:1000D0001D110008090300081D1100081D1100086A
:1000E0001D1100081D1100081D110008000000006E
:1000F0000000000000000000000000000000000000
:0C01000000000000000000005FF808F1A3
:10010C0040F20003C2F200031A780AB901201870F9
:10011C00704700BF40F20000C2F2000008B503684F
:10012C002BB140F20003C0F2000303B1984708BDA5
:10013C0080B400AF074B4FF000021A70064B4FF023
:10014C0000021A70054B4FF000021A70BD4680BCBD
:10015C00704700BF010000200200002003000020B7
:10016C0080B483B000AF0346FB71144B1B781F2B7C
:10017C001ED8134B1B78134AF979D1540F4B1B78AB
:10018C0003F10103DAB20D4B1A700D4B1B7803F11E
:10019C000103DAB20A4B1A70094B1B78202B07D1DA
:1001AC00074B4FF000021A70044B4FF000021A700C
:1001BC0007F10C07BD4680BC704700BF0300002050
:1001CC00010000200800002080B483B000AF4FF085
:1001DC000003FB71154B1B78002B1BD0144B1B78A9
:1001EC00144AD35CFB71114B1B7803F1FF33DAB269
:1001FC000E4B1A700E4B1B7803F10103DAB20C4B49
:10020C001A700B4B1B78202B08D1094B4FF00002B6
:10021C001A7003E0064B4FF000021A70FB79184677
:10022C0007F10C07BD4680BC704700BF03000020DF
:10023C00020000200800002080B483B000AF034609
:10024C00FB711E4B1B889BB203F04003002B08D0A4
:10025C001B4B1B78002B04D1184BFA7992B29A8065
:10026C0026E0164B154A928992B242F0800292B265
:10027C009A81134B1B781F2B1AD8124B1B78124ADE
:10028C00F979D1540E4B1B7803F10103DAB20C4B04
:10029C001A700C4B1B7803F10103DAB2094B1A707C
:1002AC00084B1B78202B03D1064B4FF000021A7021
:1002BC0007F10C07BD4680BC704700BF00380140F9
:1002CC0006000020040000202800002080B584B027
:1002DC0000AF78600AE07B681B78FB737B6803F1E6
:1002EC0001037B60FB7B1846FFF7A6FF7B681B783E
:1002FC00002BF0D107F11007BD4680BD80B500AFD3
:10030C00264B1B889BB203F02003002B06D0234BFB
:10031C009B889BB2DBB21846FFF722FF1F4B1B8852
:10032C009BB203F08003002B28D01D4B1B78002BB5
:10033C001CD01A4B1B4A12781B498A5C9A80184BAA
:10034C001B7803F1FF33DAB2154B1A70154B1B787F
:10035C0003F10103DAB2134B1A70124B1B78202BEA
:10036C000CD1104B4FF000021A7007E00B4B0B4AEC
:10037C00928992B222F0800292B29A81074B1B882A
:10038C009BB203F04003002B07D0044B034A1288A6
:10039C0092B222F0400292B21A8080BD0038014025
:1003AC0006000020050000202800002080B400AFCB
:1003BC00164B164A926942F004029A61144B144A85
:1003CC00126822F040421A60114B114A126842F036
:1003DC0080521A600E4B0E4A126822F000521A60BC
:1003EC000B4B0B4A526842F004025A60084B084A05
:1003FC00526822F008025A60054B054A526822F0F6
:10040C0003025A60BD4680BC704700BF001002401A
:10041C000008014080B582B000AF0346FB71FB7948
:10042C00002B30D013E01D4B1C4AD26842F08002E6
:10043C00DA604FF47A7000F0FFFB184B174AD26861
:10044C0022F08002DA604FF4FA6000F0F5FB134BF7
:10045C009B6803F48073002BE5D01BE00F4B0F4A15
:10046C00D26842F08002DA604FF47A7000F0E4FB5C
:10047C000A4B0A4AD26822F08002DA604FF4FA6022
:10048C0000F0DAFB00E000BF044B9B6803F48073C0
:10049C00002BE3D107F10807BD4680BD00080140E1
:1004AC0080B400AF214B4FF00C021A70204B204A45
:1004BC00926942F004029A611E4A1E4B1B6823F497
:1004CC00886323F0040313601A4A1A4B1B6843F425
:1004DC00086343F008031360164B164AD26842F0C7
:1004EC000702DA60134A134B1B6823F0886323F46A
:1004FC00882313600F4A0F4B1B6823F0086323F407
:10050C00082313600B4A0B4B1B6843F0887343F4AE
:10051C0088331360074A074B1B6843F0087343F496
:10052C0008331360BD4680BC704700BF6C000020D0
:10053C00001002400008014090B585B000AF5B4B45
:10054C001B68BB605A4A07F10403126811461980F4
:10055C0003F102034FEA12421A704FF00003FB73CF
:10056C009BE04FF00003BB7322E0BA7BFB7B9A420B
:10057C000ED1504B4F4AD168BA7B07F1100082184C
:10058C0012F8082C6FEA020201EA0202DA600BE0B0
:10059C00484B484AD168BA7B07F11000821812F810
:1005AC00082C41EA0202DA60BB7B03F10103BB7346
:1005BC00BB7B032BD9D94FF000037B7366E03D4B1B
:1005CC009A687B7B07F11001CB1813F80C3C02EAFC
:1005DC000303002B16D1FA7B797B374813464FEA7D
:1005EC0043039B185B18C3181B7803F10103D8B2A3
:1005FC00314C13464FEA43039B185B18E318024631
:10060C001A703FE0FA7B787B2B4913464FEA430381
:10061C009B181B18CB181B78092B13D9FA7B787BEA
:10062C00254913464FEA43039B181B18CB181B781C
:10063C00462B07D8FA7B7B7B104619464FF03002CD
:10064C0000F03CF8FA7B787B1B4913464FEA4303D6
:10065C009B181B18CB181B78462B07D9FA7B7B7B76
:10066C00104619464FF0310200F028F8FA7B787BDF
:10067C00114913464FEA43039B181B18CB184FF034
:10068C0000021A707B7B03F101037B737B7B022BD3
:10069C0095D9FB7B03F10103FB73FB7B032B7FF6EB
:1006AC0060AF07F11407BD4690BD00BF30110008C4
:1006BC0034110008000801405400002080B483B0BD
:1006CC0000AF13460246FA710A46BA717B71154B9C
:1006DC001B78002B03D1134B4FF00C021A70114BEB
:1006EC001B7803F1FF31FA7913464FEA43039A184A
:1006FC00BB79D3180C4AD25C0C4B5A54094B1B785F
:10070C0003F1FF330A4A7979D154064B1B7803F174
:10071C00FF33DAB2034B1A7007F10C07BD4680BCED
:10072C00704700BF6C000020201100086000002002
:10073C004800002080B483B000AF144B1B780B2B07
:10074C001CD84FF00003FB80104B1B78104AD35C75
:10075C00FB800E4B1B780F4AD35C4FEA03239AB2F3
:10076C00FB8842EA03039BB2FB80084B1B7803F126
:10077C000103DAB2054B1A70FB8801E04FF000035D
:10078C00184607F10C07BD4680BC70476C00002072
:10079C00600000204800002080B400AF0D4B1B7897
:1007AC000B2B11D80B4B1B7803F10103DAB2094B5D
:1007BC001A70084B1A7813460749CB5C02F1FF32CA
:1007CC00D1B2044A117001E04FF000031846BD4647
:1007DC0080BC70476C0000206000002080B483B0A7
:1007EC0000AF40F6B8337B6003E07B6803F1FF3366
:1007FC007B607B68002BF8D107F10C07BD4680BCF1
:10080C00704700BF80B500AF174B174A926942F092
:10081C0008029A61154A154B5968154B41EA0303B6
:10082C005360124B114A12681A60104A0F4B5968E8
:10083C00104B01EA030353600C4B0C4A12681A600C
:10084C0000F0D6F84FF001004FF001014FF000021C
:10085C0000F092F800F07AF84FF006004FF000012B
:10086C0000F008F980BD00BF00100240000C0140F0
:10087C0000111111FF11111180B584B000AF0346A6
:10088C003960FB71FB794FEAC303DBB2DBB243F097
:10089C004003DBB2DBB218464FF0000100F0EAF87F
:1008AC004FF00003FB730CE0FB7B3A68D3181B780A
:1008BC0018464FF0010100F0DDF8FB7B03F101035A
:1008CC00FB73FB7B072BEFD94FF080004FF000013F
:1008DC0000F0D0F807F11007BD4680BD80B582B09E
:1008EC0000AF02460B46FA71BB71BB79002B09D1E4
:1008FC00FB7963F07F03DBB218464FF0000100F088
:10090C00B9F808E0FB7963F03F03DBB218464FF00F
:10091C00000100F0AFF807F10807BD4680BD00BF2D
:10092C0080B582B000AF786008E07B681B78184611
:10093C0000F01CF97B6803F101037B607B681B787A
:10094C00002BF2D107F10807BD4680BD80B500AF82
:10095C004FF001004FF0000100F08CF84FF0000058
:10096C004FF00001FFF7BAFF024B4FF000021A7074
:10097C0080BD00BF0700002080B582B000AF1346D9
:10098C000246FA710A46BA717B71FB79002B06D1CB
:10099C004FF008004FF0000100F06CF823E0BB7939
:1009AC00002B10D17B79002B06D14FF00C004FF0AF
:1009BC00000100F05FF816E04FF00D004FF0000161
:1009CC0000F058F80FE07B79002B06D14FF00E00A9
:1009DC004FF0000100F04EF805E04FF00F004FF023
:1009EC00000100F047F807F10807BD4680BD00BFC5
:1009FC0080B500AF1E4B4FF07C421A611C4B4FF47C
:100A0C0000521A611A4B4FF400621A61FFF7E6FEAE
:100A1C00174B4FF000621A61FFF7E0FE144B4FF0DA
:100A2C007C421A61124B4FF400521A61104B4FF476
:100A3C0000621A61FFF7D2FE0D4B4FF000621A6193
:100A4C00FFF7CCFE0A4B4FF07C421A61084B4FF477
:100A5C0000421A61064B4FF400621A61FFF7BEFEAA
:100A6C00034B4FF000621A61FFF7B8FE80BD00BF68
:100A7C00000C014080B582B000AF02460B46FA7103
:100A8C00BB71394B4FF07C421A61BB79002B03D000
:100A9C00354B4FF480621A61FB7903F01003002B85
:100AAC0003D0314B4FF480521A61FB7903F02003D1
:100ABC00002B03D02C4B4FF400521A61FB7903F03E
:100ACC004003002B03D0284B4FF480421A61FB7972
:100ADC005BB2002B03DA244B4FF400421A61224B19
:100AEC004FF400621A61FFF779FE1F4B4FF0006262
:100AFC001A61FFF773FE1C4B4FF070421A61FB79C1
:100B0C0003F00103DBB2002B03D0174B4FF48052E0
:100B1C001A61FB7903F00203002B03D0124B4FF444
:100B2C0000521A61FB7903F00403002B03D00E4B27
:100B3C004FF480421A61FB7903F00803002B03D0B9
:100B4C00094B4FF400421A61074B4FF400621A61D3
:100B5C00FFF744FE044B4FF000621A61FFF73EFEB4
:100B6C0007F10807BD4680BD000C014080B582B07E
:100B7C0000AF0346FB71104B1B780F2B05D14FF0C8
:100B8C0000004FF00101FFF7A9FE0B4B1B781F2B48
:100B9C0001D9FFF7DBFEFB7918464FF00101FFF797
:100BAC0069FF054B1B7803F10103DAB2024B1A7093
:100BBC0007F10807BD4680BD0700002080B483B054
:100BCC0000AF0346FB71094B97F907204FEA52120D
:100BDC00F97901F01F014FF0010000FA01F143F81F
:100BEC00221007F10C07BD4680BC704700E100E005
:100BFC0080B400AF0E4B0E4AD26942F00402DA61A7
:100C0C000C4B42F6DF621A850A4B4FF6FF729A8440
:100C1C00084B4FF001021A80064B064A128A92B218
:100C2C0022F0010292B21A82BD4680BC704700BF0E
:100C3C00001002400008004080B483B000AF0346AF
:100C4C00FB80144B134AD26942F00402DA61124B56
:100C5C0042F6DF621A85104BFA886FEA020292B2F2
:100C6C009A840D4B4FF001021A8000BF0A4B1B8A6D
:100C7C009BB203F00103002BF8D0074B064A128AF3
:100C8C0092B222F0010292B21A8207F10C07BD4611
:100C9C0080BC7047001002400008004080B582B054
:100CAC0000AF0346FB80154B144AD26942F0010297
:100CBC00DA614FF0804342F6DF621A854FF08043D1
:100CCC00FA889A854FF080434FF08042128892B296
:100CDC0042F0010292B21A804FF080434FF08042F2
:100CEC00928992B242F0010292B29A814FF01C00AA
:100CFC00FFF764FF07F10807BD4680BD00100240F6
:100D0C0080B400AF044B044A126842F400221A600B
:100D1C00BD4680BC704700BF0010024080B483B059
:100D2C0000AF4FF000037B604FF000033B60174BAC
:100D3C00164A126842F480321A60144B1B6803F492
:100D4C0000333B607B6803F101037B603B68002B45
:100D5C0003D17B68B3F5A06FEFD10C4B1B6803F488
:100D6C000033002B0BD0094B084A526822F00302C7
:100D7C005A60064B054A526842F001025A603B68C1
:100D8C00184607F10C07BD4680BC704700100240A6
:100D9C0080B400AF044B044A926842F400029A609B
:100DAC00BD4680BC704700BF0010024080B483B0C9
:100DBC0000AF0346FB71094B97F907204FEA52121B
:100DCC00F97901F01F014FF0010000FA01F143F82D
:100DDC00221007F10C07BD4680BC704700E100E013
:100DEC0080B483B000AF0346FB80324B314A92692A
:100DFC0042F004029A61304B2F4A526822F04002B2
:100E0C005A602D4B2C4A526842F080025A602A4B91
:100E1C00294A526842F030025A60274B264A5268DF
:100E2C0022F400625A60244B234A526842F48062D6
:100E3C005A60214B204A526822F440725A601D4B72
:100E4C001C4A926942F480429A611C4BFA881C49F4
:100E5C0091FBF2F292B21A81184B184A928992B213
:100E6C0042F4005292B29A81144B144A928992B273
:100E7C0022F4805292B29A81104B104A928992B20B
:100E8C0022F4806292B29A810C4B0C4A928992B2F3
:100E9C0042F00C0292B29A81084B084A128A92B222
:100EAC0022F4405292B21A8207F10C07BD4680BC64
:100EBC00704700BF0010024000080140003801409C
:100ECC00001BB70080B483B000AF0346FB71044B2A
:100EDC00FA7992B29A8007F10C07BD4680BC704734
:100EEC000038014080B500AF0A4B0A4A928992B291
:100EFC0042F0200292B29A81064B064A928992B233
:100F0C0042F0400292B29A814FF02500FFF74EFF5B
:100F1C0080BD00BF0038014080B400AF084B1B8877
:100F2C009BB203F02003002B04D0054B9B889BB293
:100F3C00DBB201E04FF000031846BD4680BC7047A1
:100F4C000038014080B582B000AF786008E07B6863
:100F5C001B781846FFF7B6FF7B6803F101037B6033
:100F6C007B681B78002BF2D107F10807BD4680BDCA
:100F7C0080B500AF00F06CF80948FFF7D1FC4FF4D6
:100F8C007A70FFF759FEFFF7E1FC064B054AD26871
:100F9C0082F00102DA604FF47A70FFF74DFEF4E74D
:100FAC0038110008000C014080B582B000AF4FF042
:100FBC0080434FF08042128A92B222F0010292B228
:100FCC001A82FFF7B9FAFFF7B5FB0346FB80FB88E3
:100FDC00002B26D0FB887B717B792A2B01D1FFF764
:100FEC00B5FC7B79312B02D11648FFF76FF97B7971
:100FFC00322B02D11448FFF769F97B79332B02D1DC
:10100C001248FFF763F97B79342B03D14FF00100C1
:10101C00FFF700FA7B79352B03D14FF00000FFF777
:10102C00F9F9FFF7D1F803467B717B79002B05D0DA
:10103C007B7918464FF00101FFF71CFD07F10807FB
:10104C00BD4680BD44110008481100085811000825
:10105C0080B500AF194B194A926942F008029A61A7
:10106C00174B174A126822F0CC021A60144B144A20
:10107C00126842F011021A60FFF750FEFFF740FEB3
:10108C00FFF7C0FB4FF001004FF000014FF00002E2
:10109C00FFF772FCFFF704FA4FF00A00FFF7FEFDB2
:1010AC00FFF7A6FD4FF41650FFF79AFEFFF71AFF55
:1010BC00FFF73EF8FFF77AF980BD00BF0010024041
:1010CC00000C014080B400AFBD4680BC704700BF2F
:1010DC00002103E0094B5B58435004310848094B8D
:1010EC0042189A42F6D3084A02E0002342F8043B25
:1010FC00064B9A42F9D3FFF73BFF704740140008A8
:10110C0000000020000000200000002070000020E3
:10111C00FEE700003132333435363738392A302384
:10112C000000000008102040010204004C43442041
:10113C0074657374204F4B0061740D0061746430DE
:10114C003530363037333536383B0D006174610D30
:10115C0000000000F8B500BFF8BC08BC9E46704704
:0C116C00F8B500BFF8BC08BC9E467047F8
:041438002101000886
:04143C000D01000896
:04000005080010DD02
:00000001FF
